{
  "contractName": "selling",
  "abi": [
    {
      "inputs": [
        {
          "internalType": "uint256",
          "name": "",
          "type": "uint256"
        }
      ],
      "name": "all_picture",
      "outputs": [
        {
          "internalType": "string",
          "name": "picture_nft",
          "type": "string"
        },
        {
          "internalType": "uint256",
          "name": "highestprice",
          "type": "uint256"
        },
        {
          "internalType": "uint256",
          "name": "startprice",
          "type": "uint256"
        },
        {
          "internalType": "address payable",
          "name": "highest_bidder",
          "type": "address"
        },
        {
          "internalType": "uint256",
          "name": "picture_id",
          "type": "uint256"
        },
        {
          "internalType": "bool",
          "name": "onsell",
          "type": "bool"
        },
        {
          "internalType": "uint256",
          "name": "deadline",
          "type": "uint256"
        }
      ],
      "stateMutability": "view",
      "type": "function"
    },
    {
      "inputs": [
        {
          "internalType": "uint256",
          "name": "",
          "type": "uint256"
        }
      ],
      "name": "all_picture_owner",
      "outputs": [
        {
          "internalType": "address",
          "name": "",
          "type": "address"
        }
      ],
      "stateMutability": "view",
      "type": "function"
    },
    {
      "inputs": [],
      "name": "picture_num",
      "outputs": [
        {
          "internalType": "uint256",
          "name": "",
          "type": "uint256"
        }
      ],
      "stateMutability": "view",
      "type": "function"
    },
    {
      "inputs": [
        {
          "internalType": "string",
          "name": "_pictureNft",
          "type": "string"
        }
      ],
      "name": "createPicture",
      "outputs": [
        {
          "internalType": "uint256",
          "name": "",
          "type": "uint256"
        }
      ],
      "stateMutability": "nonpayable",
      "type": "function"
    },
    {
      "inputs": [
        {
          "internalType": "uint256",
          "name": "id",
          "type": "uint256"
        }
      ],
      "name": "getPictureById",
      "outputs": [
        {
          "components": [
            {
              "internalType": "string",
              "name": "picture_nft",
              "type": "string"
            },
            {
              "internalType": "uint256",
              "name": "highestprice",
              "type": "uint256"
            },
            {
              "internalType": "uint256",
              "name": "startprice",
              "type": "uint256"
            },
            {
              "internalType": "address payable",
              "name": "highest_bidder",
              "type": "address"
            },
            {
              "internalType": "uint256",
              "name": "picture_id",
              "type": "uint256"
            },
            {
              "internalType": "bool",
              "name": "onsell",
              "type": "bool"
            },
            {
              "internalType": "uint256",
              "name": "deadline",
              "type": "uint256"
            }
          ],
          "internalType": "struct selling.picture",
          "name": "",
          "type": "tuple"
        }
      ],
      "stateMutability": "view",
      "type": "function"
    },
    {
      "inputs": [
        {
          "internalType": "uint256",
          "name": "id",
          "type": "uint256"
        },
        {
          "internalType": "uint256",
          "name": "_startprice",
          "type": "uint256"
        },
        {
          "internalType": "uint256",
          "name": "_deadline",
          "type": "uint256"
        }
      ],
      "name": "auction",
      "outputs": [],
      "stateMutability": "payable",
      "type": "function"
    },
    {
      "inputs": [
        {
          "internalType": "uint256",
          "name": "id",
          "type": "uint256"
        },
        {
          "internalType": "uint256",
          "name": "_price",
          "type": "uint256"
        }
      ],
      "name": "bid",
      "outputs": [],
      "stateMutability": "payable",
      "type": "function"
    },
    {
      "inputs": [
        {
          "internalType": "uint256",
          "name": "_id",
          "type": "uint256"
        },
        {
          "internalType": "uint256",
          "name": "price",
          "type": "uint256"
        }
      ],
      "name": "auctionConfirm",
      "outputs": [
        {
          "internalType": "bool",
          "name": "",
          "type": "bool"
        }
      ],
      "stateMutability": "payable",
      "type": "function"
    },
    {
      "inputs": [
        {
          "internalType": "uint256",
          "name": "_id",
          "type": "uint256"
        }
      ],
      "name": "cancel_auction",
      "outputs": [],
      "stateMutability": "nonpayable",
      "type": "function"
    },
    {
      "inputs": [],
      "name": "getBalance",
      "outputs": [
        {
          "internalType": "uint256",
          "name": "",
          "type": "uint256"
        }
      ],
      "stateMutability": "view",
      "type": "function"
    },
    {
      "inputs": [
        {
          "internalType": "string",
          "name": "a",
          "type": "string"
        },
        {
          "internalType": "string",
          "name": "b",
          "type": "string"
        }
      ],
      "name": "StringCompare",
      "outputs": [
        {
          "internalType": "bool",
          "name": "",
          "type": "bool"
        }
      ],
      "stateMutability": "pure",
      "type": "function"
    }
  ],
  "bytecode": "0x608060405234801561001057600080fd5b506113e7806100206000396000f3fe60806040526004361061009c5760003560e01c80636ab339d1116100645780636ab339d11461018b5780637111631c146101ce57806375d16611146101f9578063b73e739914610229578063fc5e847c14610245578063fcc5e3cb146102825761009c565b806312065fe0146100a157806314de7f21146100cc57806345f42ec914610109578063598647f8146101465780635990ee2a14610162575b600080fd5b3480156100ad57600080fd5b506100b66102bf565b6040516100c39190610c94565b60405180910390f35b3480156100d857600080fd5b506100f360048036038101906100ee9190610e09565b6102c7565b6040516101009190610c94565b60405180910390f35b34801561011557600080fd5b50610130600480360381019061012b9190610e7e565b61049e565b60405161013d919061103a565b60405180910390f35b610160600480360381019061015b919061105c565b610605565b005b34801561016e57600080fd5b5061018960048036038101906101849190610e7e565b61067c565b005b34801561019757600080fd5b506101b260048036038101906101ad9190610e7e565b61078f565b6040516101c59796959493929190611104565b60405180910390f35b3480156101da57600080fd5b506101e3610896565b6040516101f09190610c94565b60405180910390f35b610213600480360381019061020e919061105c565b61089c565b604051610220919061117a565b60405180910390f35b610243600480360381019061023e9190611195565b610a2d565b005b34801561025157600080fd5b5061026c60048036038101906102679190610e7e565b610af7565b6040516102799190611209565b60405180910390f35b34801561028e57600080fd5b506102a960048036038101906102a49190611224565b610b2a565b6040516102b6919061117a565b60405180910390f35b600047905090565b60008060006040518060e0016040528085815260200160008152602001600081526020013373ffffffffffffffffffffffffffffffffffffffff168152602001600081526020016000151581526020016000815250905060028190806001815401808255809150506001900390600052602060002090600702016000909190919091506000820151816000019080519060200190610366929190610b83565b50602082015181600101556040820151816002015560608201518160030160006101000a81548173ffffffffffffffffffffffffffffffffffffffff021916908373ffffffffffffffffffffffffffffffffffffffff1602179055506080820151816004015560a08201518160050160006101000a81548160ff02191690831515021790555060c082015181600601555050600160028054905061040a91906112cb565b9150600280549050600081905550816002838154811061042d5761042c6112ff565b5b906000526020600020906007020160040181905550336001600084815260200190815260200160002060006101000a81548173ffffffffffffffffffffffffffffffffffffffff021916908373ffffffffffffffffffffffffffffffffffffffff1602179055508192505050919050565b6104a6610c09565b600282815481106104ba576104b96112ff565b5b90600052602060002090600702016040518060e00160405290816000820180546104e39061135d565b80601f016020809104026020016040519081016040528092919081815260200182805461050f9061135d565b801561055c5780601f106105315761010080835404028352916020019161055c565b820191906000526020600020905b81548152906001019060200180831161053f57829003601f168201915b5050505050815260200160018201548152602001600282015481526020016003820160009054906101000a900473ffffffffffffffffffffffffffffffffffffffff1673ffffffffffffffffffffffffffffffffffffffff1673ffffffffffffffffffffffffffffffffffffffff168152602001600482015481526020016005820160009054906101000a900460ff161515151581526020016006820154815250509050919050565b60006002838154811061061b5761061a6112ff565b5b90600052602060002090600702019050818160010181905550338160030160006101000a81548173ffffffffffffffffffffffffffffffffffffffff021916908373ffffffffffffffffffffffffffffffffffffffff160217905550505050565b600060028281548110610692576106916112ff565b5b906000526020600020906007020190503373ffffffffffffffffffffffffffffffffffffffff166001600084815260200190815260200160002060009054906101000a900473ffffffffffffffffffffffffffffffffffffffff1673ffffffffffffffffffffffffffffffffffffffff161461070d57600080fd5b60008160060181905550338160030160006101000a81548173ffffffffffffffffffffffffffffffffffffffff021916908373ffffffffffffffffffffffffffffffffffffffff1602179055506000816001018190555060008160050160006101000a81548160ff021916908315150217905550600081600201819055505050565b6002818154811061079f57600080fd5b90600052602060002090600702016000915090508060000180546107c29061135d565b80601f01602080910402602001604051908101604052809291908181526020018280546107ee9061135d565b801561083b5780601f106108105761010080835404028352916020019161083b565b820191906000526020600020905b81548152906001019060200180831161081e57829003601f168201915b5050505050908060010154908060020154908060030160009054906101000a900473ffffffffffffffffffffffffffffffffffffffff16908060040154908060050160009054906101000a900460ff16908060060154905087565b60005481565b600080600284815481106108b3576108b26112ff565b5b906000526020600020906007020190503373ffffffffffffffffffffffffffffffffffffffff168160030160009054906101000a900473ffffffffffffffffffffffffffffffffffffffff1673ffffffffffffffffffffffffffffffffffffffff161461091f57600080fd5b60006001600086815260200190815260200160002060009054906101000a900473ffffffffffffffffffffffffffffffffffffffff1690508073ffffffffffffffffffffffffffffffffffffffff166108fc349081150290604051600060405180830381858888f1935050505015801561099d573d6000803e3d6000fd5b50336001600087815260200190815260200160002060006101000a81548173ffffffffffffffffffffffffffffffffffffffff021916908373ffffffffffffffffffffffffffffffffffffffff1602179055506000826002018190555060008260050160006101000a81548160ff0219169083151502179055506000826006018190555060019250505092915050565b600060028481548110610a4357610a426112ff565b5b90600052602060002090600702019050600160008260040154815260200190815260200160002060009054906101000a900473ffffffffffffffffffffffffffffffffffffffff1673ffffffffffffffffffffffffffffffffffffffff163373ffffffffffffffffffffffffffffffffffffffff1614610ac257600080fd5b60018160050160006101000a81548160ff02191690831515021790555082816002018190555081816006018190555050505050565b60016020528060005260406000206000915054906101000a900473ffffffffffffffffffffffffffffffffffffffff1681565b600081604051602001610b3d919061138f565b6040516020818303038152906040528051906020012083604051602001610b64919061138f565b6040516020818303038152906040528051906020012014905092915050565b828054610b8f9061135d565b90600052602060002090601f016020900481019282610bb15760008555610bf8565b82601f10610bca57805160ff1916838001178555610bf8565b82800160010185558215610bf8579182015b82811115610bf7578251825591602001919060010190610bdc565b5b509050610c059190610c5e565b5090565b6040518060e00160405280606081526020016000815260200160008152602001600073ffffffffffffffffffffffffffffffffffffffff16815260200160008152602001600015158152602001600081525090565b5b80821115610c77576000816000905550600101610c5f565b5090565b6000819050919050565b610c8e81610c7b565b82525050565b6000602082019050610ca96000830184610c85565b92915050565b6000604051905090565b600080fd5b600080fd5b600080fd5b600080fd5b6000601f19601f8301169050919050565b7f4e487b7100000000000000000000000000000000000000000000000000000000600052604160045260246000fd5b610d1682610ccd565b810181811067ffffffffffffffff82111715610d3557610d34610cde565b5b80604052505050565b6000610d48610caf565b9050610d548282610d0d565b919050565b600067ffffffffffffffff821115610d7457610d73610cde565b5b610d7d82610ccd565b9050602081019050919050565b82818337600083830152505050565b6000610dac610da784610d59565b610d3e565b905082815260208101848484011115610dc857610dc7610cc8565b5b610dd3848285610d8a565b509392505050565b600082601f830112610df057610def610cc3565b5b8135610e00848260208601610d99565b91505092915050565b600060208284031215610e1f57610e1e610cb9565b5b600082013567ffffffffffffffff811115610e3d57610e3c610cbe565b5b610e4984828501610ddb565b91505092915050565b610e5b81610c7b565b8114610e6657600080fd5b50565b600081359050610e7881610e52565b92915050565b600060208284031215610e9457610e93610cb9565b5b6000610ea284828501610e69565b91505092915050565b600081519050919050565b600082825260208201905092915050565b60005b83811015610ee5578082015181840152602081019050610eca565b83811115610ef4576000848401525b50505050565b6000610f0582610eab565b610f0f8185610eb6565b9350610f1f818560208601610ec7565b610f2881610ccd565b840191505092915050565b610f3c81610c7b565b82525050565b600073ffffffffffffffffffffffffffffffffffffffff82169050919050565b6000610f6d82610f42565b9050919050565b610f7d81610f62565b82525050565b60008115159050919050565b610f9881610f83565b82525050565b600060e0830160008301518482036000860152610fbb8282610efa565b9150506020830151610fd06020860182610f33565b506040830151610fe36040860182610f33565b506060830151610ff66060860182610f74565b5060808301516110096080860182610f33565b5060a083015161101c60a0860182610f8f565b5060c083015161102f60c0860182610f33565b508091505092915050565b600060208201905081810360008301526110548184610f9e565b905092915050565b6000806040838503121561107357611072610cb9565b5b600061108185828601610e69565b925050602061109285828601610e69565b9150509250929050565b600082825260208201905092915050565b60006110b882610eab565b6110c2818561109c565b93506110d2818560208601610ec7565b6110db81610ccd565b840191505092915050565b6110ef81610f62565b82525050565b6110fe81610f83565b82525050565b600060e082019050818103600083015261111e818a6110ad565b905061112d6020830189610c85565b61113a6040830188610c85565b61114760608301876110e6565b6111546080830186610c85565b61116160a08301856110f5565b61116e60c0830184610c85565b98975050505050505050565b600060208201905061118f60008301846110f5565b92915050565b6000806000606084860312156111ae576111ad610cb9565b5b60006111bc86828701610e69565b93505060206111cd86828701610e69565b92505060406111de86828701610e69565b9150509250925092565b60006111f382610f42565b9050919050565b611203816111e8565b82525050565b600060208201905061121e60008301846111fa565b92915050565b6000806040838503121561123b5761123a610cb9565b5b600083013567ffffffffffffffff81111561125957611258610cbe565b5b61126585828601610ddb565b925050602083013567ffffffffffffffff81111561128657611285610cbe565b5b61129285828601610ddb565b9150509250929050565b7f4e487b7100000000000000000000000000000000000000000000000000000000600052601160045260246000fd5b60006112d682610c7b565b91506112e183610c7b565b9250828210156112f4576112f361129c565b5b828203905092915050565b7f4e487b7100000000000000000000000000000000000000000000000000000000600052603260045260246000fd5b7f4e487b7100000000000000000000000000000000000000000000000000000000600052602260045260246000fd5b6000600282049050600182168061137557607f821691505b602082108114156113895761138861132e565b5b50919050565b600060208201905081810360008301526113a981846110ad565b90509291505056fea264697066735822122048a1172602d06597d27bbebf958210c34486df3bfbe4a05bfa9fd2007c76dfcb64736f6c63430008090033",
  "immutableReferences": {},
  "source": "// SPDX-License-Identifier: MIT\r\npragma solidity >=0.4.22 <0.9.0;\r\n\r\npragma experimental ABIEncoderV2;\r\ncontract selling{\r\n    struct picture{\r\n        string picture_nft;\r\n        uint highestprice;\r\n        uint startprice;\r\n        address payable highest_bidder;\r\n        uint picture_id;\r\n        bool onsell;\r\n        uint deadline;\r\n    }\r\n    uint public picture_num;\r\n    mapping(uint=>address) public all_picture_owner;\r\n    picture [] public all_picture;\r\n\r\n    function createPicture(string memory _pictureNft) public returns(uint){\r\n        uint id;\r\n        picture memory anew=picture(_pictureNft,0,0,payable(msg.sender),0,false,0);\r\n        all_picture.push(anew);\r\n        id=all_picture.length-1;\r\n        picture_num=all_picture.length;\r\n        all_picture[id].picture_id=id;\r\n        all_picture_owner[id]=msg.sender;\r\n        return id;\r\n    }\r\n\r\n    function getPictureByAddress(string memory _pictureNft) private view returns (uint){\r\n        for(uint i=0;i<all_picture.length;i++)\r\n        {\r\n            if(StringCompare(all_picture[i].picture_nft,_pictureNft))\r\n            {\r\n                return i;\r\n            }\r\n        }\r\n    }\r\n    function getPictureById(uint id)public view returns(picture memory){\r\n        return all_picture[id];\r\n    }\r\n\r\n    function auction(uint id,uint _startprice,uint _deadline)public payable{\r\n        picture storage devote=all_picture[id];\r\n        require(msg.sender==all_picture_owner[devote.picture_id]);\r\n        devote.onsell=true;\r\n        devote.startprice=_startprice;\r\n        devote.deadline=_deadline;\r\n    }\r\n    function bid(uint id,uint _price)public payable{\r\n        picture storage devote=all_picture[id];\r\n        devote.highestprice=_price;\r\n        devote.highest_bidder=payable(msg.sender);\r\n    }\r\n    function auctionConfirm(uint _id,uint price)public payable returns(bool){\r\n        \r\n        picture storage devote=all_picture[_id];\r\n        require(devote.highest_bidder==msg.sender);\r\n        address payable preOwner=payable(all_picture_owner[_id]);\r\n        preOwner.transfer(msg.value);\r\n        all_picture_owner[_id]=msg.sender;\r\n        devote.startprice=0;\r\n        devote.onsell=false;\r\n        devote.deadline=0;\r\n        return true;\r\n    }\r\n    function cancel_auction(uint _id)public{\r\n        picture storage devote=all_picture[_id];\r\n        require(all_picture_owner[_id]==msg.sender);\r\n        devote.deadline=0;\r\n        devote.highest_bidder=payable(msg.sender);\r\n        devote.highestprice=0;\r\n        devote.onsell=false;\r\n        devote.startprice=0;\r\n    }\r\n    function getBalance() public view returns (uint){\r\n        return address(this).balance;\r\n    }\r\n    function StringCompare(string memory a, string memory b) public pure returns (bool) {\r\n        return keccak256(abi.encode(a)) == keccak256(abi.encode(b));\r\n    }\r\n}",
  "sourcePath": "D:\\code\\web\\dapp\\contracts\\selling.sol",
  "compiler": {
    "name": "solc",
    "version": "0.8.9+commit.e5eed63a.Emscripten.clang"
  },
  "schemaVersion": "3.4.3",
  "updatedAt": "2021-11-05T03:48:06.572Z",
  "devdoc": {
    "kind": "dev",
    "methods": {},
    "version": 1
  },
  "userdoc": {
    "kind": "user",
    "methods": {},
    "version": 1
  }
}