{
  "contractName": "selling",
  "abi": [
    {
      "inputs": [
        {
          "internalType": "uint256",
          "name": "",
          "type": "uint256"
        }
      ],
      "name": "all_picture",
      "outputs": [
        {
          "internalType": "address",
          "name": "picture_nft",
          "type": "address"
        },
        {
          "internalType": "uint256",
          "name": "highestprice",
          "type": "uint256"
        },
        {
          "internalType": "uint256",
          "name": "startprice",
          "type": "uint256"
        },
        {
          "internalType": "address payable",
          "name": "highest_bidder",
          "type": "address"
        },
        {
          "internalType": "uint256",
          "name": "picture_id",
          "type": "uint256"
        },
        {
          "internalType": "bool",
          "name": "onsell",
          "type": "bool"
        },
        {
          "internalType": "uint256",
          "name": "deadline",
          "type": "uint256"
        }
      ],
      "stateMutability": "view",
      "type": "function"
    },
    {
      "inputs": [
        {
          "internalType": "uint256",
          "name": "",
          "type": "uint256"
        }
      ],
      "name": "all_picture_owner",
      "outputs": [
        {
          "internalType": "address",
          "name": "",
          "type": "address"
        }
      ],
      "stateMutability": "view",
      "type": "function"
    },
    {
      "inputs": [],
      "name": "picture_num",
      "outputs": [
        {
          "internalType": "uint256",
          "name": "",
          "type": "uint256"
        }
      ],
      "stateMutability": "view",
      "type": "function"
    },
    {
      "inputs": [
        {
          "internalType": "address",
          "name": "_pictureNft",
          "type": "address"
        }
      ],
      "name": "createPicture",
      "outputs": [
        {
          "internalType": "uint256",
          "name": "",
          "type": "uint256"
        }
      ],
      "stateMutability": "nonpayable",
      "type": "function"
    },
    {
      "inputs": [
        {
          "internalType": "address",
          "name": "_pictureNft",
          "type": "address"
        },
        {
          "internalType": "uint256",
          "name": "_startPrice",
          "type": "uint256"
        },
        {
          "internalType": "uint256",
          "name": "_deadline",
          "type": "uint256"
        }
      ],
      "name": "auction",
      "outputs": [],
      "stateMutability": "nonpayable",
      "type": "function"
    },
    {
      "inputs": [
        {
          "internalType": "address",
          "name": "_pictureNft",
          "type": "address"
        },
        {
          "internalType": "uint256",
          "name": "_price",
          "type": "uint256"
        }
      ],
      "name": "bid",
      "outputs": [],
      "stateMutability": "payable",
      "type": "function"
    },
    {
      "inputs": [
        {
          "internalType": "address",
          "name": "_pictureNft",
          "type": "address"
        }
      ],
      "name": "auctionConfirm",
      "outputs": [
        {
          "internalType": "bool",
          "name": "",
          "type": "bool"
        }
      ],
      "stateMutability": "payable",
      "type": "function"
    },
    {
      "inputs": [
        {
          "internalType": "address",
          "name": "_pictureNft",
          "type": "address"
        }
      ],
      "name": "cancel_auction",
      "outputs": [],
      "stateMutability": "nonpayable",
      "type": "function"
    },
    {
      "inputs": [],
      "name": "getBalance",
      "outputs": [
        {
          "internalType": "uint256",
          "name": "",
          "type": "uint256"
        }
      ],
      "stateMutability": "view",
      "type": "function"
    }
  ],
  "bytecode": "0x608060405234801561001057600080fd5b50610ed8806100206000396000f3fe6080604052600436106100865760003560e01c80636ab339d1116100595780636ab339d11461013f5780637111631c146101825780639d9ff845146101ad578063f5acc027146101d6578063fc5e847c146101ff57610086565b806312065fe01461008b57806318d0822d146100b657806359d667a5146100f3578063681d17171461010f575b600080fd5b34801561009757600080fd5b506100a061023c565b6040516100ad9190610b40565b60405180910390f35b3480156100c257600080fd5b506100dd60048036038101906100d89190610bbe565b610244565b6040516100ea9190610b40565b60405180910390f35b61010d60048036038101906101089190610c17565b610455565b005b61012960048036038101906101249190610bbe565b610651565b6040516101369190610c72565b60405180910390f35b34801561014b57600080fd5b5061016660048036038101906101619190610c8d565b6107ab565b6040516101799796959493929190610cea565b60405180910390f35b34801561018e57600080fd5b5061019761084a565b6040516101a49190610b40565b60405180910390f35b3480156101b957600080fd5b506101d460048036038101906101cf9190610d59565b610850565b005b3480156101e257600080fd5b506101fd60048036038101906101f89190610bbe565b610922565b005b34801561020b57600080fd5b5061022660048036038101906102219190610c8d565b610a43565b6040516102339190610dac565b60405180910390f35b600047905090565b60008060026040518060e001604052808573ffffffffffffffffffffffffffffffffffffffff16815260200160008152602001600081526020013373ffffffffffffffffffffffffffffffffffffffff168152602001600081526020016000151581526020016000815250908060018154018082558091505060019003906000526020600020906007020160009091909190915060008201518160000160006101000a81548173ffffffffffffffffffffffffffffffffffffffff021916908373ffffffffffffffffffffffffffffffffffffffff160217905550602082015181600101556040820151816002015560608201518160030160006101000a81548173ffffffffffffffffffffffffffffffffffffffff021916908373ffffffffffffffffffffffffffffffffffffffff1602179055506080820151816004015560a08201518160050160006101000a81548160ff02191690831515021790555060c08201518160060155505060016002805490506103c29190610df6565b905060028054905060008190555080600282815481106103e5576103e4610e2a565b5b906000526020600020906007020160040181905550336001600083815260200190815260200160002060006101000a81548173ffffffffffffffffffffffffffffffffffffffff021916908373ffffffffffffffffffffffffffffffffffffffff16021790555080915050919050565b81816000600261046484610a76565b8154811061047557610474610e2a565b5b90600052602060002090600702016040518060e00160405290816000820160009054906101000a900473ffffffffffffffffffffffffffffffffffffffff1673ffffffffffffffffffffffffffffffffffffffff1673ffffffffffffffffffffffffffffffffffffffff16815260200160018201548152602001600282015481526020016003820160009054906101000a900473ffffffffffffffffffffffffffffffffffffffff1673ffffffffffffffffffffffffffffffffffffffff1673ffffffffffffffffffffffffffffffffffffffff168152602001600482015481526020016005820160009054906101000a900460ff1615151515815260200160068201548152505090506000341161058c57600080fd5b34821061059857600080fd5b600015158160a00151151514156105ae57600080fd5b8060c001514211156105bf57600080fd5b818160200151106105cf57600080fd5b600060026105dc87610a76565b815481106105ed576105ec610e2a565b5b90600052602060002090600702019050848160010181905550338160030160006101000a81548173ffffffffffffffffffffffffffffffffffffffff021916908373ffffffffffffffffffffffffffffffffffffffff160217905550505050505050565b60008061065d83610a76565b905060006002828154811061067557610674610e2a565b5b906000526020600020906007020190503373ffffffffffffffffffffffffffffffffffffffff168160030160009054906101000a900473ffffffffffffffffffffffffffffffffffffffff1673ffffffffffffffffffffffffffffffffffffffff16146106e157600080fd5b60006001600084815260200190815260200160002060009054906101000a900473ffffffffffffffffffffffffffffffffffffffff1690508073ffffffffffffffffffffffffffffffffffffffff166108fc83600101549081150290604051600060405180830381858888f19350505050158015610763573d6000803e3d6000fd5b50600082600201819055506000826001018190555060008260050160006101000a81548160ff0219169083151502179055506000826006018190555060019350505050919050565b600281815481106107bb57600080fd5b90600052602060002090600702016000915090508060000160009054906101000a900473ffffffffffffffffffffffffffffffffffffffff16908060010154908060020154908060030160009054906101000a900473ffffffffffffffffffffffffffffffffffffffff16908060040154908060050160009054906101000a900460ff16908060060154905087565b60005481565b6000600261085d85610a76565b8154811061086e5761086d610e2a565b5b90600052602060002090600702019050600160008260040154815260200190815260200160002060009054906101000a900473ffffffffffffffffffffffffffffffffffffffff1673ffffffffffffffffffffffffffffffffffffffff163373ffffffffffffffffffffffffffffffffffffffff16146108ed57600080fd5b60018160050160006101000a81548160ff02191690831515021790555082816002018190555081816006018190555050505050565b600061092d82610a76565b905060006002828154811061094557610944610e2a565b5b906000526020600020906007020190503373ffffffffffffffffffffffffffffffffffffffff166001600084815260200190815260200160002060009054906101000a900473ffffffffffffffffffffffffffffffffffffffff1673ffffffffffffffffffffffffffffffffffffffff16146109c057600080fd5b60008160060181905550338160030160006101000a81548173ffffffffffffffffffffffffffffffffffffffff021916908373ffffffffffffffffffffffffffffffffffffffff1602179055506000816001018190555060008160050160006101000a81548160ff02191690831515021790555060008160020181905550505050565b60016020528060005260406000206000915054906101000a900473ffffffffffffffffffffffffffffffffffffffff1681565b600080600090505b600280549050811015610b20578273ffffffffffffffffffffffffffffffffffffffff1660028281548110610ab657610ab5610e2a565b5b906000526020600020906007020160000160009054906101000a900473ffffffffffffffffffffffffffffffffffffffff1673ffffffffffffffffffffffffffffffffffffffff161415610b0d5780915050610b22565b8080610b1890610e59565b915050610a7e565b505b919050565b6000819050919050565b610b3a81610b27565b82525050565b6000602082019050610b556000830184610b31565b92915050565b600080fd5b600073ffffffffffffffffffffffffffffffffffffffff82169050919050565b6000610b8b82610b60565b9050919050565b610b9b81610b80565b8114610ba657600080fd5b50565b600081359050610bb881610b92565b92915050565b600060208284031215610bd457610bd3610b5b565b5b6000610be284828501610ba9565b91505092915050565b610bf481610b27565b8114610bff57600080fd5b50565b600081359050610c1181610beb565b92915050565b60008060408385031215610c2e57610c2d610b5b565b5b6000610c3c85828601610ba9565b9250506020610c4d85828601610c02565b9150509250929050565b60008115159050919050565b610c6c81610c57565b82525050565b6000602082019050610c876000830184610c63565b92915050565b600060208284031215610ca357610ca2610b5b565b5b6000610cb184828501610c02565b91505092915050565b610cc381610b80565b82525050565b6000610cd482610b60565b9050919050565b610ce481610cc9565b82525050565b600060e082019050610cff600083018a610cba565b610d0c6020830189610b31565b610d196040830188610b31565b610d266060830187610cdb565b610d336080830186610b31565b610d4060a0830185610c63565b610d4d60c0830184610b31565b98975050505050505050565b600080600060608486031215610d7257610d71610b5b565b5b6000610d8086828701610ba9565b9350506020610d9186828701610c02565b9250506040610da286828701610c02565b9150509250925092565b6000602082019050610dc16000830184610cba565b92915050565b7f4e487b7100000000000000000000000000000000000000000000000000000000600052601160045260246000fd5b6000610e0182610b27565b9150610e0c83610b27565b925082821015610e1f57610e1e610dc7565b5b828203905092915050565b7f4e487b7100000000000000000000000000000000000000000000000000000000600052603260045260246000fd5b6000610e6482610b27565b91507fffffffffffffffffffffffffffffffffffffffffffffffffffffffffffffffff821415610e9757610e96610dc7565b5b60018201905091905056fea2646970667358221220c7f447b24b1dbef5e4e11651545532bfa3478a55aa581fe2a41355e32d6bb2fe64736f6c63430008090033",
  "immutableReferences": {},
  "source": "// SPDX-License-Identifier: MIT\r\npragma solidity >=0.4.22 <0.9.0;\r\n\r\ncontract selling{\r\n    struct picture{\r\n        address picture_nft;\r\n        uint highestprice;\r\n        uint startprice;\r\n        address payable highest_bidder;\r\n        uint picture_id;\r\n        bool onsell;\r\n        uint deadline;\r\n    }\r\n    uint public picture_num;\r\n    mapping(uint=>address) public all_picture_owner;\r\n    picture [] public all_picture;\r\n    function createPicture(address _pictureNft) public returns(uint){\r\n        uint id;\r\n        all_picture.push(picture(_pictureNft,0,0,payable(msg.sender),0,false,0));\r\n        id=all_picture.length-1;\r\n        picture_num=all_picture.length;\r\n        all_picture[id].picture_id=id;\r\n        all_picture_owner[id]=msg.sender;\r\n        return id;\r\n    }\r\n    function getPictureByAddress(address _pictureNft) private view returns (uint){\r\n        for(uint i=0;i<all_picture.length;i++)\r\n        {\r\n            if(all_picture[i].picture_nft==_pictureNft)\r\n            {\r\n                return i;\r\n            }\r\n        }\r\n    }\r\n    function auction(address _pictureNft,uint _startPrice,uint _deadline)public{\r\n        picture storage devote=all_picture[getPictureByAddress(_pictureNft)];\r\n        require(msg.sender==all_picture_owner[devote.picture_id]);\r\n        devote.onsell=true;\r\n        devote.startprice=_startPrice;\r\n        devote.deadline=_deadline;\r\n    }\r\n    modifier bidIsreasonable(address _pictureNft,uint price)\r\n    {\r\n        picture memory devote=all_picture[getPictureByAddress(_pictureNft)];\r\n        require(msg.value>0);\r\n        require(price<msg.value);\r\n        require(devote.onsell!=false);\r\n        require(block.timestamp<=devote.deadline);\r\n        require(devote.highestprice<price);\r\n        _;\r\n    }\r\n    function bid(address _pictureNft,uint _price)public payable bidIsreasonable(_pictureNft,_price){\r\n        picture storage devote=all_picture[getPictureByAddress(_pictureNft)];\r\n        devote.highestprice=_price;\r\n        devote.highest_bidder=payable(msg.sender);\r\n    }\r\n    function auctionConfirm(address _pictureNft)public payable returns(bool){\r\n        \r\n        uint picture_id=getPictureByAddress(_pictureNft);\r\n        picture storage devote=all_picture[picture_id];\r\n        require(devote.highest_bidder==msg.sender);\r\n        address payable preOwner=payable(all_picture_owner[picture_id]);\r\n        preOwner.transfer(devote.highestprice);\r\n        devote.startprice=0;\r\n        devote.highestprice=0;\r\n        devote.onsell=false;\r\n        devote.deadline=0;\r\n        return true;\r\n    }\r\n    function cancel_auction(address _pictureNft)public{\r\n        uint picture_id=getPictureByAddress(_pictureNft);\r\n        picture storage devote=all_picture[picture_id];\r\n        require(all_picture_owner[picture_id]==msg.sender);\r\n        devote.deadline=0;\r\n        devote.highest_bidder=payable(msg.sender);\r\n        devote.highestprice=0;\r\n        devote.onsell=false;\r\n        devote.startprice=0;\r\n    }\r\n    function getBalance() public view returns (uint){\r\n        return address(this).balance;\r\n    }\r\n}",
  "sourcePath": "D:\\code\\web\\dapp\\contracts\\selling.sol",
  "compiler": {
    "name": "solc",
    "version": "0.8.9+commit.e5eed63a.Emscripten.clang"
  },
  "schemaVersion": "3.4.3",
  "updatedAt": "2021-10-27T06:30:05.880Z",
  "devdoc": {
    "kind": "dev",
    "methods": {},
    "version": 1
  },
  "userdoc": {
    "kind": "user",
    "methods": {},
    "version": 1
  }
}